{
  "contractName": "CredentialManagement",
  "abi": [
    {
      "constant": false,
      "inputs": [
        {
          "name": "uDid",
          "type": "string"
        },
        {
          "name": "iDid",
          "type": "string"
        },
        {
          "name": "cid",
          "type": "string"
        },
        {
          "name": "ciid",
          "type": "string"
        }
      ],
      "name": "register",
      "outputs": [
        {
          "name": "",
          "type": "string"
        }
      ],
      "payable": false,
      "stateMutability": "nonpayable",
      "type": "function"
    },
    {
      "constant": true,
      "inputs": [
        {
          "name": "cid",
          "type": "string"
        }
      ],
      "name": "getVCIID",
      "outputs": [
        {
          "name": "",
          "type": "string"
        }
      ],
      "payable": false,
      "stateMutability": "view",
      "type": "function"
    },
    {
      "constant": true,
      "inputs": [
        {
          "name": "cid",
          "type": "string"
        },
        {
          "name": "uDid",
          "type": "string"
        }
      ],
      "name": "getVC",
      "outputs": [
        {
          "components": [
            {
              "name": "id",
              "type": "string"
            },
            {
              "name": "iid",
              "type": "string"
            },
            {
              "name": "owner",
              "type": "string"
            },
            {
              "name": "issuer",
              "type": "string"
            }
          ],
          "name": "",
          "type": "tuple"
        }
      ],
      "payable": false,
      "stateMutability": "view",
      "type": "function"
    },
    {
      "constant": true,
      "inputs": [
        {
          "name": "did",
          "type": "string"
        }
      ],
      "name": "getOwnersVC",
      "outputs": [
        {
          "components": [
            {
              "name": "did",
              "type": "string"
            },
            {
              "components": [
                {
                  "name": "id",
                  "type": "string"
                },
                {
                  "name": "disable",
                  "type": "bool"
                }
              ],
              "name": "vcIds",
              "type": "tuple[]"
            }
          ],
          "name": "",
          "type": "tuple"
        }
      ],
      "payable": false,
      "stateMutability": "view",
      "type": "function"
    },
    {
      "constant": false,
      "inputs": [
        {
          "name": "did",
          "type": "string"
        }
      ],
      "name": "revokeAll",
      "outputs": [],
      "payable": false,
      "stateMutability": "nonpayable",
      "type": "function"
    },
    {
      "constant": true,
      "inputs": [
        {
          "name": "did",
          "type": "string"
        },
        {
          "name": "cid",
          "type": "string"
        }
      ],
      "name": "getDisable",
      "outputs": [
        {
          "name": "",
          "type": "bool"
        }
      ],
      "payable": false,
      "stateMutability": "view",
      "type": "function"
    },
    {
      "constant": true,
      "inputs": [
        {
          "name": "cid",
          "type": "string"
        }
      ],
      "name": "getState",
      "outputs": [
        {
          "name": "",
          "type": "uint8"
        }
      ],
      "payable": false,
      "stateMutability": "view",
      "type": "function"
    },
    {
      "constant": false,
      "inputs": [
        {
          "name": "cid",
          "type": "string"
        },
        {
          "name": "did",
          "type": "string"
        }
      ],
      "name": "revokeOpt",
      "outputs": [],
      "payable": false,
      "stateMutability": "nonpayable",
      "type": "function"
    }
  ],
  "bytecode": "0x608060405234801561001057600080fd5b50611edb806100206000396000f3fe608060405234801561001057600080fd5b50600436106100885760003560e01c8063bf8394191161005b578063bf83941914610139578063d1c12f4614610169578063d435cc6414610185578063e33f77ca146101b557610088565b806306ceefa31461008d5780630e24c52c146100bd57806344a5abf8146100ed57806387e9e5311461011d575b600080fd5b6100a760048036036100a29190810190611695565b6101e5565b6040516100b49190611cd7565b60405180910390f35b6100d760048036036100d29190810190611701565b6106d4565b6040516100e49190611be7565b60405180910390f35b61010760048036036101029190810190611654565b610961565b6040516101149190611cf9565b60405180910390f35b61013760048036036101329190810190611654565b610b63565b005b610153600480360361014e9190810190611695565b610d17565b6040516101609190611bb1565b60405180910390f35b610183600480360361017e9190810190611695565b610f1d565b005b61019f600480360361019a9190810190611654565b611343565b6040516101ac9190611be7565b60405180910390f35b6101cf60048036036101ca9190810190611654565b61140b565b6040516101dc9190611bcc565b60405180910390f35b6101ed611440565b818373__DIDUtils______________________________6344dd41e76000836040516102199190611b9a565b9081526020016040518091039020600201846040518363ffffffff1660e01b8152600401610248929190611c40565b60206040518083038186803b15801561026057600080fd5b505af4158015610274573d6000803e3d6000fd5b505050506040513d601f19601f82011682018060405250610298919081019061162b565b80610348575073__DIDUtils______________________________6344dd41e76000836040516102c89190611b9a565b9081526020016040518091039020600301846040518363ffffffff1660e01b81526004016102f7929190611c40565b60206040518083038186803b15801561030f57600080fd5b505af4158015610323573d6000803e3d6000fd5b505050506040513d601f19601f82011682018060405250610347919081019061162b565b5b610387576040517f08c379a000000000000000000000000000000000000000000000000000000000815260040161037e90611c77565b60405180910390fd5b846001600281111561039557fe5b6001826040516103a59190611b9a565b908152602001604051809103902060009054906101000a900460ff1660028111156103cc57fe5b1461040c576040517f08c379a000000000000000000000000000000000000000000000000000000000815260040161040390611cb7565b60405180910390fd5b610414611440565b6000876040516104249190611b9a565b9081526020016040518091039020604051806080016040529081600082018054600181600116156101000203166002900480601f0160208091040260200160405190810160405280929190818152602001828054600181600116156101000203166002900480156104d65780601f106104ab576101008083540402835291602001916104d6565b820191906000526020600020905b8154815290600101906020018083116104b957829003601f168201915b50505050508152602001600182018054600181600116156101000203166002900480601f0160208091040260200160405190810160405280929190818152602001828054600181600116156101000203166002900480156105785780601f1061054d57610100808354040283529160200191610578565b820191906000526020600020905b81548152906001019060200180831161055b57829003601f168201915b50505050508152602001600282018054600181600116156101000203166002900480601f01602080910402602001604051908101604052809291908181526020018280546001816001161561010002031660029004801561061a5780601f106105ef5761010080835404028352916020019161061a565b820191906000526020600020905b8154815290600101906020018083116105fd57829003601f168201915b50505050508152602001600382018054600181600116156101000203166002900480601f0160208091040260200160405190810160405280929190818152602001828054600181600116156101000203166002900480156106bc5780601f10610691576101008083540402835291602001916106bc565b820191906000526020600020905b81548152906001019060200180831161069f57829003601f168201915b50505050508152505090508094505050505092915050565b606082600060028111156106e457fe5b6001826040516106f49190611b9a565b908152602001604051809103902060009054906101000a900460ff16600281111561071b57fe5b1461075b576040517f08c379a000000000000000000000000000000000000000000000000000000000815260040161075290611c97565b60405180910390fd5b8360008560405161076c9190611b9a565b90815260200160405180910390206000019080519060200190610790929190611468565b50826000856040516107a29190611b9a565b908152602001604051809103902060010190805190602001906107c6929190611468565b50856000856040516107d89190611b9a565b908152602001604051809103902060020190805190602001906107fc929190611468565b508460008560405161080e9190611b9a565b90815260200160405180910390206003019080519060200190610832929190611468565b50600180856040516108449190611b9a565b908152602001604051809103902060006101000a81548160ff0219169083600281111561086d57fe5b021790555061087a6114e8565b6040518060400160405280868152602001600015158152509050866002886040516108a59190611b9a565b908152602001604051809103902060000190805190602001906108c9929190611468565b506002876040516108da9190611b9a565b908152602001604051809103902060010181908060018154018082558091505090600182039060005260206000209060020201600090919290919091506000820151816000019080519060200190610933929190611504565b5060208201518160010160006101000a81548160ff0219169083151502179055505050505050949350505050565b610969611584565b610971611584565b6002836040516109819190611b9a565b9081526020016040518091039020604051806040016040529081600082018054600181600116156101000203166002900480601f016020809104026020016040519081016040528092919081815260200182805460018160011615610100020316600290048015610a335780601f10610a0857610100808354040283529160200191610a33565b820191906000526020600020905b815481529060010190602001808311610a1657829003601f168201915b5050505050815260200160018201805480602002602001604051908101604052809291908181526020016000905b82821015610b505783829060005260206000209060020201604051806040016040529081600082018054600181600116156101000203166002900480601f016020809104026020016040519081016040528092919081815260200182805460018160011615610100020316600290048015610b1d5780601f10610af257610100808354040283529160200191610b1d565b820191906000526020600020905b815481529060010190602001808311610b0057829003601f168201915b505050505081526020016001820160009054906101000a900460ff16151515158152505081526020019060010190610a61565b5050505081525050905080915050919050565b60008090505b600282604051610b799190611b9a565b908152602001604051809103902060010180549050811015610d13576060600283604051610ba79190611b9a565b90815260200160405180910390206001018281548110610bc357fe5b90600052602060002090600202016000018054600181600116156101000203166002900480601f016020809104026020016040519081016040528092919081815260200182805460018160011615610100020316600290048015610c685780601f10610c3d57610100808354040283529160200191610c68565b820191906000526020600020905b815481529060010190602001808311610c4b57829003601f168201915b505050505090506002600182604051610c819190611b9a565b908152602001604051809103902060006101000a81548160ff02191690836002811115610caa57fe5b02179055506001600284604051610cc19190611b9a565b90815260200160405180910390206001018381548110610cdd57fe5b906000526020600020906002020160010160006101000a81548160ff021916908315150217905550508080600101915050610b69565b5050565b600080600090505b600284604051610d2f9190611b9a565b908152602001604051809103902060010180549050811015610f15576060600285604051610d5d9190611b9a565b90815260200160405180910390206001018281548110610d7957fe5b90600052602060002090600202016000018054600181600116156101000203166002900480601f016020809104026020016040519081016040528092919081815260200182805460018160011615610100020316600290048015610e1e5780601f10610df357610100808354040283529160200191610e1e565b820191906000526020600020905b815481529060010190602001808311610e0157829003601f168201915b5050505050905073__DIDUtils______________________________6344dd41e782866040518363ffffffff1660e01b8152600401610e5e929190611c09565b60206040518083038186803b158015610e7657600080fd5b505af4158015610e8a573d6000803e3d6000fd5b505050506040513d601f19601f82011682018060405250610eae919081019061162b565b15610f0757600285604051610ec39190611b9a565b90815260200160405180910390206001018281548110610edf57fe5b906000526020600020906002020160010160009054906101000a900460ff1692505050610f17565b508080600101915050610d1f565b505b92915050565b808273__DIDUtils______________________________6344dd41e7600083604051610f499190611b9a565b9081526020016040518091039020600201846040518363ffffffff1660e01b8152600401610f78929190611c40565b60206040518083038186803b158015610f9057600080fd5b505af4158015610fa4573d6000803e3d6000fd5b505050506040513d601f19601f82011682018060405250610fc8919081019061162b565b80611078575073__DIDUtils______________________________6344dd41e7600083604051610ff89190611b9a565b9081526020016040518091039020600301846040518363ffffffff1660e01b8152600401611027929190611c40565b60206040518083038186803b15801561103f57600080fd5b505af4158015611053573d6000803e3d6000fd5b505050506040513d601f19601f82011682018060405250611077919081019061162b565b5b6110b7576040517f08c379a00000000000000000000000000000000000000000000000000000000081526004016110ae90611c77565b60405180910390fd5b83600160028111156110c557fe5b6001826040516110d59190611b9a565b908152602001604051809103902060009054906101000a900460ff1660028111156110fc57fe5b1461113c576040517f08c379a000000000000000000000000000000000000000000000000000000000815260040161113390611cb7565b60405180910390fd5b60008090505b6002856040516111529190611b9a565b90815260200160405180910390206001018054905081101561133b5760606002866040516111809190611b9a565b9081526020016040518091039020600101828154811061119c57fe5b90600052602060002090600202016000018054600181600116156101000203166002900480601f0160208091040260200160405190810160405280929190818152602001828054600181600116156101000203166002900480156112415780601f1061121657610100808354040283529160200191611241565b820191906000526020600020905b81548152906001019060200180831161122457829003601f168201915b5050505050905073__DIDUtils______________________________6344dd41e782896040518363ffffffff1660e01b8152600401611281929190611c09565b60206040518083038186803b15801561129957600080fd5b505af41580156112ad573d6000803e3d6000fd5b505050506040513d601f19601f820116820180604052506112d1919081019061162b565b1561132d5760016002876040516112e89190611b9a565b9081526020016040518091039020600101838154811061130457fe5b906000526020600020906002020160010160006101000a81548160ff0219169083151502179055505b508080600101915050611142565b505050505050565b6060806000836040516113569190611b9a565b90815260200160405180910390206001018054600181600116156101000203166002900480601f0160208091040260200160405190810160405280929190818152602001828054600181600116156101000203166002900480156113fb5780601f106113d0576101008083540402835291602001916113fb565b820191906000526020600020905b8154815290600101906020018083116113de57829003601f168201915b5050505050905080915050919050565b600060018260405161141d9190611b9a565b908152602001604051809103902060009054906101000a900460ff169050919050565b6040518060800160405280606081526020016060815260200160608152602001606081525090565b828054600181600116156101000203166002900490600052602060002090601f016020900481019282601f106114a957805160ff19168380011785556114d7565b828001600101855582156114d7579182015b828111156114d65782518255916020019190600101906114bb565b5b5090506114e4919061159e565b5090565b6040518060400160405280606081526020016000151581525090565b828054600181600116156101000203166002900490600052602060002090601f016020900481019282601f1061154557805160ff1916838001178555611573565b82800160010185558215611573579182015b82811115611572578251825591602001919060010190611557565b5b509050611580919061159e565b5090565b604051806040016040528060608152602001606081525090565b6115c091905b808211156115bc5760008160009055506001016115a4565b5090565b90565b60006115cf8251611e30565b905092915050565b600082601f8301126115e857600080fd5b81356115fb6115f682611d48565b611d1b565b9150808252602083016020830185838301111561161757600080fd5b611622838284611e4e565b50505092915050565b60006020828403121561163d57600080fd5b600061164b848285016115c3565b91505092915050565b60006020828403121561166657600080fd5b600082013567ffffffffffffffff81111561168057600080fd5b61168c848285016115d7565b91505092915050565b600080604083850312156116a857600080fd5b600083013567ffffffffffffffff8111156116c257600080fd5b6116ce858286016115d7565b925050602083013567ffffffffffffffff8111156116eb57600080fd5b6116f7858286016115d7565b9150509250929050565b6000806000806080858703121561171757600080fd5b600085013567ffffffffffffffff81111561173157600080fd5b61173d878288016115d7565b945050602085013567ffffffffffffffff81111561175a57600080fd5b611766878288016115d7565b935050604085013567ffffffffffffffff81111561178357600080fd5b61178f878288016115d7565b925050606085013567ffffffffffffffff8111156117ac57600080fd5b6117b8878288016115d7565b91505092959194509250565b60006117d08383611aa1565b905092915050565b60006117e382611d93565b6117ed8185611dc1565b9350836020820285016117ff85611d74565b60005b8481101561183857838303885261181a8383516117c4565b925061182582611db4565b9150602088019750600181019050611802565b508196508694505050505092915050565b61185281611e10565b82525050565b61186181611e10565b82525050565b61187081611e3c565b82525050565b600061188182611da9565b61188b8185611de3565b935061189b818560208601611e5d565b6118a481611e90565b840191505092915050565b60006118ba82611da9565b6118c48185611df4565b93506118d4818560208601611e5d565b6118dd81611e90565b840191505092915050565b60006118f382611da9565b6118fd8185611e05565b935061190d818560208601611e5d565b80840191505092915050565b600061192482611d9e565b61192e8185611dd2565b935061193e818560208601611e5d565b61194781611e90565b840191505092915050565b60008154600181166000811461196f5760018114611995576119d9565b607f60028304166119808187611df4565b955060ff1983168652602086019350506119d9565b600282046119a38187611df4565b95506119ae85611d81565b60005b828110156119d0578154818901526001820191506020810190506119b1565b80880195505050505b505092915050565b60006119ee600d83611de3565b91507f4e6f7420546865204f776e6572000000000000000000000000000000000000006000830152602082019050919050565b6000611a2e601783611de3565b91507f416c72656164792045786973747320446f63756d656e740000000000000000006000830152602082019050919050565b6000611a6e601683611de3565b91507f5643204e6f6e65206f72204465616374697661746564000000000000000000006000830152602082019050919050565b60006040830160008301518482036000860152611abe8282611919565b9150506020830151611ad36020860182611849565b508091505092915050565b60006080830160008301518482036000860152611afb8282611919565b91505060208301518482036020860152611b158282611919565b91505060408301518482036040860152611b2f8282611919565b91505060608301518482036060860152611b498282611919565b9150508091505092915050565b60006040830160008301518482036000860152611b738282611919565b91505060208301518482036020860152611b8d82826117d8565b9150508091505092915050565b6000611ba682846118e8565b915081905092915050565b6000602082019050611bc66000830184611858565b92915050565b6000602082019050611be16000830184611867565b92915050565b60006020820190508181036000830152611c018184611876565b905092915050565b60006040820190508181036000830152611c2381856118af565b90508181036020830152611c3781846118af565b90509392505050565b60006040820190508181036000830152611c5a8185611952565b90508181036020830152611c6e81846118af565b90509392505050565b60006020820190508181036000830152611c90816119e1565b9050919050565b60006020820190508181036000830152611cb081611a21565b9050919050565b60006020820190508181036000830152611cd081611a61565b9050919050565b60006020820190508181036000830152611cf18184611ade565b905092915050565b60006020820190508181036000830152611d138184611b56565b905092915050565b6000604051905081810181811067ffffffffffffffff82111715611d3e57600080fd5b8060405250919050565b600067ffffffffffffffff821115611d5f57600080fd5b601f19601f8301169050602081019050919050565b6000602082019050919050565b60008160005260206000209050919050565b600081519050919050565b600081519050919050565b600081519050919050565b6000602082019050919050565b600082825260208201905092915050565b600082825260208201905092915050565b600082825260208201905092915050565b600082825260208201905092915050565b600081905092915050565b60008115159050919050565b600060038210611e2857fe5b819050919050565b60008115159050919050565b6000611e4782611e1c565b9050919050565b82818337600083830152505050565b60005b83811015611e7b578082015181840152602081019050611e60565b83811115611e8a576000848401525b50505050565b6000601f19601f830116905091905056fea265627a7a723058207ab39520b90f2af27e14f521410aeb99615243d3c5d151024fa04c15af0b5f636c6578706572696d656e74616cf50037",
  "source": "pragma solidity 0.5.6;\npragma experimental ABIEncoderV2;\n\n \nimport './DIDUtils.sol';  \nimport './CredentialStorage.sol';\nimport './DIDStorage.sol';\n\n\n/**\n * @title DidLedger\n * @dev This contract is credential storage implementation\n */\n\n//did:kt:0d82ec18df5395bf2ca7611f0648bfc1c935bdd1773c1bb411c42f23318ba9ab\n//did:kt:1111ec18df5395bf2ca7611f0648bfc1c935bdd1773c1bb411c42f23318ba9ab\ncontract CredentialManagement is CredentialStorage {\n\n    modifier checkExistVC(string memory cid){\n        require(vcState[cid] == CredentialState.None,\"Already Exists Document\");\n        _;\n    }\n\n    modifier checkActiveVC(string memory cid){\n        require(vcState[cid] == CredentialState.Active,\"VC None or Deactivated\");\n        _;\n    }\n\n    modifier checkAuthority(string memory did, string memory cid){\n        require(DIDUtils.equalString( vcs[cid].owner , did) || DIDUtils.equalString( vcs[cid].issuer , did) ,\"Not The Owner\");\n        _;   \n    }\n\n    function register(\n        string memory uDid,\n        string memory iDid,\n        string memory cid,\n        string memory ciid) public \n        checkExistVC(cid)\n        returns(string memory)\n    {\n        vcs[cid].id = cid;\n        vcs[cid].iid = ciid;\n        vcs[cid].owner = uDid;\n        vcs[cid].issuer = iDid;\n        vcState[cid] = CredentialState.Active;\n\n        \n        CredentialId memory ownersVC = CredentialId(cid,false);\n        owner[uDid].did = uDid;\n        owner[uDid].vcIds.push(ownersVC);\n    }\n\n//modify\n    function getVCIID(\n        string memory cid\n        )public view\n        returns(string memory)\n    {\n        string memory ciid = vcs[cid].iid;\n        return ciid ; \n\n    }\n\n    function getVC(\n        string memory cid,\n        string memory uDid) public view \n        checkAuthority(uDid,cid) checkActiveVC(cid)\n        returns(Credential memory) \n    {\n        \n        Credential memory vc = vcs[cid];\n        return vc;\n    }\n\n    function getOwnersVC(\n        string memory did\n    )public view\n    returns(Owner memory)\n    {\n        Owner memory ownersVC = owner[did];\n        // for(uint256 i=0;i<ownersVC.vcIds.length;i++){\n        //     if(ownersVC.vcIds[i].disable) delete ownersVC.vcIds[i];\n        // }\n\n        return ownersVC;\n    }\n\n//modify\n    function revokeAll(\n        string memory did\n    ) public \n    {\n         for(uint256 i=0;i<owner[did].vcIds.length;i++) {\n             string memory cid = owner[did].vcIds[i].id;\n             vcState[cid] = CredentialState.Deactivated;\n             owner[did].vcIds[i].disable = true;\n            \n        }\n\n    }\n\n    function getDisable(\n        string memory did,\n        string memory cid\n    )public view returns(bool)\n    {\n        \n         for(uint256 i=0;i<owner[did].vcIds.length;i++) {\n             string memory id = owner[did].vcIds[i].id;\n            if(DIDUtils.equalString(id,cid)) {\n                return owner[did].vcIds[i].disable ;\n            }\n        }\n\n    }\n\n    function getState(\n        string memory cid \n    )public view returns(CredentialState ) \n    {\n        return vcState[cid];\n    }\n\n\n    function revokeOpt(\n        string memory cid,\n        string memory did) public \n        checkAuthority(did,cid) checkActiveVC(cid)\n    {\n\n        for(uint256 i=0; i<owner[did].vcIds.length; i++){\n            string memory id = owner[did].vcIds[i].id;\n            if(DIDUtils.equalString(id,cid)){\n                owner[did].vcIds[i].disable = true;\n            }\n        }\n    }\n\n\n}",
  "sourcePath": "/home/pslab154/project/findid-registry-dev/contracts/CredentialManagement.sol",
  "compiler": {
    "name": "solc",
    "version": "0.5.6+commit.b259423e.Emscripten.clang"
  },
  "schemaVersion": "3.4.10",
  "updatedAt": "2022-11-09T14:19:24.735Z",
  "networkType": "ethereum",
  "devdoc": {
    "details": "This contract is credential storage implementation",
    "methods": {},
    "title": "DidLedger"
  },
  "userdoc": {
    "methods": {}
  }
}