{
  "contractName": "DIDLedger",
  "abi": [
    {
      "constant": true,
      "inputs": [
        {
          "name": "",
          "type": "string"
        }
      ],
      "name": "nonce",
      "outputs": [
        {
          "name": "",
          "type": "uint256"
        }
      ],
      "payable": false,
      "stateMutability": "view",
      "type": "function"
    },
    {
      "constant": true,
      "inputs": [
        {
          "name": "userInfo",
          "type": "string"
        }
      ],
      "name": "create_view",
      "outputs": [
        {
          "components": [
            {
              "name": "id",
              "type": "string"
            },
            {
              "name": "contexts",
              "type": "string[]"
            },
            {
              "components": [
                {
                  "name": "id",
                  "type": "string"
                },
                {
                  "name": "keyType",
                  "type": "string"
                },
                {
                  "name": "pubKeyData",
                  "type": "string"
                },
                {
                  "name": "disable",
                  "type": "bool"
                }
              ],
              "name": "publicKeys",
              "type": "tuple[]"
            },
            {
              "name": "svcType",
              "type": "string"
            },
            {
              "name": "svcEndPoint",
              "type": "string"
            },
            {
              "name": "credentials",
              "type": "string[]"
            }
          ],
          "name": "",
          "type": "tuple"
        }
      ],
      "payable": false,
      "stateMutability": "view",
      "type": "function"
    },
    {
      "constant": true,
      "inputs": [
        {
          "name": "did",
          "type": "string"
        }
      ],
      "name": "getStateDom",
      "outputs": [
        {
          "name": "",
          "type": "uint8"
        }
      ],
      "payable": false,
      "stateMutability": "view",
      "type": "function"
    },
    {
      "constant": false,
      "inputs": [
        {
          "name": "userInfo",
          "type": "string"
        },
        {
          "name": "addr",
          "type": "address"
        }
      ],
      "name": "create",
      "outputs": [
        {
          "name": "did",
          "type": "string"
        }
      ],
      "payable": false,
      "stateMutability": "nonpayable",
      "type": "function"
    },
    {
      "constant": true,
      "inputs": [
        {
          "name": "did",
          "type": "string"
        }
      ],
      "name": "getDocument",
      "outputs": [
        {
          "components": [
            {
              "name": "id",
              "type": "string"
            },
            {
              "name": "contexts",
              "type": "string[]"
            },
            {
              "components": [
                {
                  "name": "id",
                  "type": "string"
                },
                {
                  "name": "keyType",
                  "type": "string"
                },
                {
                  "name": "pubKeyData",
                  "type": "string"
                },
                {
                  "name": "disable",
                  "type": "bool"
                }
              ],
              "name": "publicKeys",
              "type": "tuple[]"
            },
            {
              "name": "svcType",
              "type": "string"
            },
            {
              "name": "svcEndPoint",
              "type": "string"
            },
            {
              "name": "credentials",
              "type": "string[]"
            }
          ],
          "name": "",
          "type": "tuple"
        }
      ],
      "payable": false,
      "stateMutability": "view",
      "type": "function"
    },
    {
      "constant": false,
      "inputs": [
        {
          "name": "did",
          "type": "string"
        },
        {
          "name": "addr",
          "type": "address"
        }
      ],
      "name": "addPubKey",
      "outputs": [],
      "payable": false,
      "stateMutability": "nonpayable",
      "type": "function"
    },
    {
      "constant": false,
      "inputs": [
        {
          "name": "did",
          "type": "string"
        },
        {
          "name": "addr",
          "type": "address"
        }
      ],
      "name": "addAddrKey",
      "outputs": [],
      "payable": false,
      "stateMutability": "nonpayable",
      "type": "function"
    },
    {
      "constant": false,
      "inputs": [
        {
          "name": "svcInfo",
          "type": "string"
        },
        {
          "name": "endPoint",
          "type": "string"
        },
        {
          "name": "svcType",
          "type": "string"
        },
        {
          "name": "addr",
          "type": "address"
        }
      ],
      "name": "createSvc",
      "outputs": [],
      "payable": false,
      "stateMutability": "nonpayable",
      "type": "function"
    },
    {
      "constant": false,
      "inputs": [
        {
          "name": "userInfo",
          "type": "string"
        },
        {
          "name": "addr",
          "type": "address"
        }
      ],
      "name": "reCreate",
      "outputs": [],
      "payable": false,
      "stateMutability": "nonpayable",
      "type": "function"
    },
    {
      "constant": false,
      "inputs": [
        {
          "name": "did",
          "type": "string"
        }
      ],
      "name": "disableDom",
      "outputs": [],
      "payable": false,
      "stateMutability": "nonpayable",
      "type": "function"
    },
    {
      "constant": false,
      "inputs": [
        {
          "name": "did",
          "type": "string"
        },
        {
          "name": "targetId",
          "type": "string"
        }
      ],
      "name": "disableKey",
      "outputs": [],
      "payable": false,
      "stateMutability": "nonpayable",
      "type": "function"
    }
  ],
  "bytecode": "0x608060405234801561001057600080fd5b50614e94806100206000396000f3fe608060405234801561001057600080fd5b50600436106100a95760003560e01c8063a7ec5c5b11610071578063a7ec5c5b14610176578063bbe8b1fd14610192578063c58f2f31146101ae578063d3220463146101de578063e3fb0731146101fa578063fc14e4ee14610216576100a9565b806305a2a7fd146100ae5780634349c9f2146100ca5780637ccb6a64146100e657806384b47b0f146101165780639afd5f9b14610146575b600080fd5b6100c860048036036100c3919081019061427c565b610246565b005b6100e460048036036100df91908101906142fe565b6103fd565b005b61010060048036036100fb919081019061427c565b610522565b60405161010d9190614b94565b60405180910390f35b610130600480360361012b91908101906142fe565b610cab565b60405161013d91906149e2565b60405180910390f35b610160600480360361015b919081019061427c565b6111f2565b60405161016d9190614b94565b60405180910390f35b610190600480360361018b91908101906142fe565b6118df565b005b6101ac60048036036101a791908101906143be565b611e4b565b005b6101c860048036036101c3919081019061427c565b611e5e565b6040516101d591906149c7565b60405180910390f35b6101f860048036036101f39190810190614352565b611e93565b005b610214600480360361020f91908101906142fe565b6121e5565b005b610230600480360361022b919081019061423b565b61230b565b60405161023d9190614bb6565b60405180910390f35b806001600281111561025457fe5b6001826040516102649190614995565b908152602001604051809103902060009054906101000a900460ff16600281111561028b57fe5b146102cb576040517f08c379a00000000000000000000000000000000000000000000000000000000081526004016102c290614b54565b60405180910390fd5b60026001836040516102dd9190614995565b908152602001604051809103902060006101000a81548160ff0219169083600281111561030657fe5b021790555060008090505b6000836040516103219190614995565b9081526020016040518091039020600201805490508110156103f857600015156000846040516103519190614995565b9081526020016040518091039020600201828154811061036d57fe5b906000526020600020906004020160030160009054906101000a900460ff16151514156103eb5760016000846040516103a69190614995565b908152602001604051809103902060020182815481106103c257fe5b906000526020600020906004020160030160006101000a81548160ff0219169083151502179055505b8080600101915050610311565b505050565b81606073__DIDUtils______________________________63e948fc46836040518263ffffffff1660e01b81526004016104379190614a04565b60006040518083038186803b15801561044f57600080fd5b505af4158015610463573d6000803e3d6000fd5b505050506040513d6000823e3d601f19601f8201168201806040525061048c91908101906142bd565b90506000600281111561049b57fe5b6001826040516104ab9190614995565b908152602001604051809103902060009054906101000a900460ff1660028111156104d257fe5b14610512576040517f08c379a000000000000000000000000000000000000000000000000000000000815260040161050990614b34565b60405180910390fd5b61051c8484612339565b50505050565b61052a613f3f565b8173__DIDUtils______________________________63d06c84df826040518263ffffffff1660e01b81526004016105629190614a04565b60206040518083038186803b15801561057a57600080fd5b505af415801561058e573d6000803e3d6000fd5b505050506040513d601f19601f820116820180604052506105b29190810190614212565b6105f1576040517f08c379a00000000000000000000000000000000000000000000000000000000081526004016105e890614af4565b60405180910390fd5b6105f9613f3f565b6000846040516106099190614995565b90815260200160405180910390206040518060c0016040529081600082018054600181600116156101000203166002900480601f0160208091040260200160405190810160405280929190818152602001828054600181600116156101000203166002900480156106bb5780601f10610690576101008083540402835291602001916106bb565b820191906000526020600020905b81548152906001019060200180831161069e57829003601f168201915b5050505050815260200160018201805480602002602001604051908101604052809291908181526020016000905b828210156107a5578382906000526020600020018054600181600116156101000203166002900480601f0160208091040260200160405190810160405280929190818152602001828054600181600116156101000203166002900480156107915780601f1061076657610100808354040283529160200191610791565b820191906000526020600020905b81548152906001019060200180831161077457829003601f168201915b5050505050815260200190600101906106e9565b50505050815260200160028201805480602002602001604051908101604052809291908181526020016000905b82821015610a055783829060005260206000209060040201604051806080016040529081600082018054600181600116156101000203166002900480601f01602080910402602001604051908101604052809291908181526020018280546001816001161561010002031660029004801561088e5780601f106108635761010080835404028352916020019161088e565b820191906000526020600020905b81548152906001019060200180831161087157829003601f168201915b50505050508152602001600182018054600181600116156101000203166002900480601f0160208091040260200160405190810160405280929190818152602001828054600181600116156101000203166002900480156109305780601f1061090557610100808354040283529160200191610930565b820191906000526020600020905b81548152906001019060200180831161091357829003601f168201915b50505050508152602001600282018054600181600116156101000203166002900480601f0160208091040260200160405190810160405280929190818152602001828054600181600116156101000203166002900480156109d25780601f106109a7576101008083540402835291602001916109d2565b820191906000526020600020905b8154815290600101906020018083116109b557829003601f168201915b505050505081526020016003820160009054906101000a900460ff161515151581525050815260200190600101906107d2565b505050508152602001600382018054600181600116156101000203166002900480601f016020809104026020016040519081016040528092919081815260200182805460018160011615610100020316600290048015610aa65780601f10610a7b57610100808354040283529160200191610aa6565b820191906000526020600020905b815481529060010190602001808311610a8957829003601f168201915b50505050508152602001600482018054600181600116156101000203166002900480601f016020809104026020016040519081016040528092919081815260200182805460018160011615610100020316600290048015610b485780601f10610b1d57610100808354040283529160200191610b48565b820191906000526020600020905b815481529060010190602001808311610b2b57829003601f168201915b5050505050815260200160058201805480602002602001604051908101604052809291908181526020016000905b82821015610c32578382906000526020600020018054600181600116156101000203166002900480601f016020809104026020016040519081016040528092919081815260200182805460018160011615610100020316600290048015610c1e5780601f10610bf357610100808354040283529160200191610c1e565b820191906000526020600020905b815481529060010190602001808311610c0157829003601f168201915b505050505081526020019060010190610b76565b5050505081525050905060008090505b816040015151811015610ca05781604001518181518110610c5f57fe5b60200260200101516060015115610c935781604001518181518110610c8057fe5b60200260200101610c8f613f75565b8152505b8080600101915050610c42565b508092505050919050565b606082606073__DIDUtils______________________________63e948fc46836040518263ffffffff1660e01b8152600401610ce79190614a04565b60006040518083038186803b158015610cff57600080fd5b505af4158015610d13573d6000803e3d6000fd5b505050506040513d6000823e3d601f19601f82011682018060405250610d3c91908101906142bd565b905060006002811115610d4b57fe5b600182604051610d5b9190614995565b908152602001604051809103902060009054906101000a900460ff166002811115610d8257fe5b14610dc2576040517f08c379a0000000000000000000000000000000000000000000000000000000008152600401610db990614b34565b60405180910390fd5b73__DIDUtils______________________________63e948fc46866040518263ffffffff1660e01b8152600401610df99190614a04565b60006040518083038186803b158015610e1157600080fd5b505af4158015610e25573d6000803e3d6000fd5b505050506040513d6000823e3d601f19601f82011682018060405250610e4e91908101906142bd565b9250606073__DIDUtils______________________________63a4d1444c8560016040518363ffffffff1660e01b8152600401610e8c929190614a26565b60006040518083038186803b158015610ea457600080fd5b505af4158015610eb8573d6000803e3d6000fd5b505050506040513d6000823e3d601f19601f82011682018060405250610ee191908101906142bd565b9050606073__DIDUtils______________________________63bbec1843876040518263ffffffff1660e01b8152600401610f1c91906149ac565b60006040518083038186803b158015610f3457600080fd5b505af4158015610f48573d6000803e3d6000fd5b505050506040513d6000823e3d601f19601f82011682018060405250610f7191908101906142bd565b905060606040518060400160405280602081526020017f4563647361536563703235366b315265636f766572794d6574686f64323032308152509050610fb5613f9f565b6040518060800160405280858152602001838152602001848152602001600015158152509050600087604051610feb9190614995565b90815260200160405180910390206001018060018154018082558091505090600182039060005260206000200160006040518060400160405280601c81526020017f68747470733a2f2f7777772e77332e6f72672f6e732f6469642f76310000000081525090919091509080519060200190611068929190613fc9565b50508660008860405161107b9190614995565b9081526020016040518091039020600001908051906020019061109f929190613fc9565b506000876040516110b09190614995565b908152602001604051809103902060020181908060018154018082558091505090600182039060005260206000209060040201600090919290919091506000820151816000019080519060200190611109929190614049565b506020820151816001019080519060200190611126929190614049565b506040820151816002019080519060200190611143929190614049565b5060608201518160030160006101000a81548160ff021916908315150217905550505050600180886040516111789190614995565b908152602001604051809103902060006101000a81548160ff021916908360028111156111a157fe5b021790555060006002886040516111b89190614995565b908152602001604051809103902060006101000a81548160ff021916908360018111156111e157fe5b021790555050505050505092915050565b6111fa613f3f565b606073__DIDUtils______________________________63e948fc46846040518263ffffffff1660e01b81526004016112339190614a04565b60006040518083038186803b15801561124b57600080fd5b505af415801561125f573d6000803e3d6000fd5b505050506040513d6000823e3d601f19601f8201168201806040525061128891908101906142bd565b9050611292613f3f565b6000826040516112a29190614995565b90815260200160405180910390206040518060c0016040529081600082018054600181600116156101000203166002900480601f0160208091040260200160405190810160405280929190818152602001828054600181600116156101000203166002900480156113545780601f1061132957610100808354040283529160200191611354565b820191906000526020600020905b81548152906001019060200180831161133757829003601f168201915b5050505050815260200160018201805480602002602001604051908101604052809291908181526020016000905b8282101561143e578382906000526020600020018054600181600116156101000203166002900480601f01602080910402602001604051908101604052809291908181526020018280546001816001161561010002031660029004801561142a5780601f106113ff5761010080835404028352916020019161142a565b820191906000526020600020905b81548152906001019060200180831161140d57829003601f168201915b505050505081526020019060010190611382565b50505050815260200160028201805480602002602001604051908101604052809291908181526020016000905b8282101561169e5783829060005260206000209060040201604051806080016040529081600082018054600181600116156101000203166002900480601f0160208091040260200160405190810160405280929190818152602001828054600181600116156101000203166002900480156115275780601f106114fc57610100808354040283529160200191611527565b820191906000526020600020905b81548152906001019060200180831161150a57829003601f168201915b50505050508152602001600182018054600181600116156101000203166002900480601f0160208091040260200160405190810160405280929190818152602001828054600181600116156101000203166002900480156115c95780601f1061159e576101008083540402835291602001916115c9565b820191906000526020600020905b8154815290600101906020018083116115ac57829003601f168201915b50505050508152602001600282018054600181600116156101000203166002900480601f01602080910402602001604051908101604052809291908181526020018280546001816001161561010002031660029004801561166b5780601f106116405761010080835404028352916020019161166b565b820191906000526020600020905b81548152906001019060200180831161164e57829003601f168201915b505050505081526020016003820160009054906101000a900460ff1615151515815250508152602001906001019061146b565b505050508152602001600382018054600181600116156101000203166002900480601f01602080910402602001604051908101604052809291908181526020018280546001816001161561010002031660029004801561173f5780601f106117145761010080835404028352916020019161173f565b820191906000526020600020905b81548152906001019060200180831161172257829003601f168201915b50505050508152602001600482018054600181600116156101000203166002900480601f0160208091040260200160405190810160405280929190818152602001828054600181600116156101000203166002900480156117e15780601f106117b6576101008083540402835291602001916117e1565b820191906000526020600020905b8154815290600101906020018083116117c457829003601f168201915b5050505050815260200160058201805480602002602001604051908101604052809291908181526020016000905b828210156118cb578382906000526020600020018054600181600116156101000203166002900480601f0160208091040260200160405190810160405280929190818152602001828054600181600116156101000203166002900480156118b75780601f1061188c576101008083540402835291602001916118b7565b820191906000526020600020905b81548152906001019060200180831161189a57829003601f168201915b50505050508152602001906001019061180f565b505050508152505090508092505050919050565b81606073__DIDUtils______________________________63e948fc46836040518263ffffffff1660e01b81526004016119199190614a04565b60006040518083038186803b15801561193157600080fd5b505af4158015611945573d6000803e3d6000fd5b505050506040513d6000823e3d601f19601f8201168201806040525061196e91908101906142bd565b90506001600281111561197d57fe5b60018260405161198d9190614995565b908152602001604051809103902060009054906101000a900460ff1660028111156119b457fe5b1480611a0057506002808111156119c757fe5b6001826040516119d79190614995565b908152602001604051809103902060009054906101000a900460ff1660028111156119fe57fe5b145b611a3f576040517f08c379a0000000000000000000000000000000000000000000000000000000008152600401611a3690614b14565b60405180910390fd5b606073__DIDUtils______________________________63e948fc46866040518263ffffffff1660e01b8152600401611a789190614a04565b60006040518083038186803b158015611a9057600080fd5b505af4158015611aa4573d6000803e3d6000fd5b505050506040513d6000823e3d601f19601f82011682018060405250611acd91908101906142bd565b905060016002811115611adc57fe5b600182604051611aec9190614995565b908152602001604051809103902060009054906101000a900460ff166002811115611b1357fe5b1415611b2357611b2281610246565b5b600081604051611b339190614995565b90815260200160405180910390206001018060018154018082558091505090600182039060005260206000200160006040518060400160405280601c81526020017f68747470733a2f2f7777772e77332e6f72672f6e732f6469642f76310000000081525090919091509080519060200190611bb0929190613fc9565b50506000600282604051611bc49190614995565b908152602001604051809103902060006101000a81548160ff02191690836001811115611bed57fe5b021790555060018082604051611c039190614995565b908152602001604051809103902060006101000a81548160ff02191690836002811115611c2c57fe5b02179055506000809050606073__DIDUtils______________________________63bbec1843876040518263ffffffff1660e01b8152600401611c6f91906149ac565b60006040518083038186803b158015611c8757600080fd5b505af4158015611c9b573d6000803e3d6000fd5b505050506040513d6000823e3d601f19601f82011682018060405250611cc491908101906142bd565b905060008090505b600084604051611cdc9190614995565b908152602001604051809103902060020180549050811015611e295773__DIDUtils______________________________6344dd41e783600087604051611d239190614995565b90815260200160405180910390206002018481548110611d3f57fe5b90600052602060002090600402016002016040518363ffffffff1660e01b8152600401611d6d929190614a8d565b60206040518083038186803b158015611d8557600080fd5b505af4158015611d99573d6000803e3d6000fd5b505050506040513d601f19601f82011682018060405250611dbd9190810190614212565b15611e1c576001925060008085604051611dd79190614995565b90815260200160405180910390206002018281548110611df357fe5b906000526020600020906004020160030160006101000a81548160ff0219169083151502179055505b8080600101915050611ccc565b50600015158215151415611e4257611e418387612339565b5b50505050505050565b611e5784848484612e6e565b5050505050565b6000600182604051611e709190614995565b908152602001604051809103902060009054906101000a900460ff169050919050565b8173__DIDUtils______________________________63d06c84df826040518263ffffffff1660e01b8152600401611ecb9190614a04565b60206040518083038186803b158015611ee357600080fd5b505af4158015611ef7573d6000803e3d6000fd5b505050506040513d601f19601f82011682018060405250611f1b9190810190614212565b611f5a576040517f08c379a0000000000000000000000000000000000000000000000000000000008152600401611f5190614af4565b60405180910390fd5b8260016002811115611f6857fe5b600182604051611f789190614995565b908152602001604051809103902060009054906101000a900460ff166002811115611f9f57fe5b14611fdf576040517f08c379a0000000000000000000000000000000000000000000000000000000008152600401611fd690614b54565b60405180910390fd5b60008090505b600085604051611ff59190614995565b9081526020016040518091039020600201805490508110156121de5760606000866040516120239190614995565b9081526020016040518091039020600201828154811061203f57fe5b90600052602060002090600402016000018054600181600116156101000203166002900480601f0160208091040260200160405190810160405280929190818152602001828054600181600116156101000203166002900480156120e45780601f106120b9576101008083540402835291602001916120e4565b820191906000526020600020905b8154815290600101906020018083116120c757829003601f168201915b5050505050905073__DIDUtils______________________________6344dd41e782876040518363ffffffff1660e01b8152600401612124929190614a56565b60206040518083038186803b15801561213c57600080fd5b505af4158015612150573d6000803e3d6000fd5b505050506040513d601f19601f820116820180604052506121749190810190614212565b156121d057600160008760405161218b9190614995565b908152602001604051809103902060020183815481106121a757fe5b906000526020600020906004020160030160006101000a81548160ff0219169083151502179055505b508080600101915050611fe5565b5050505050565b81606073__DIDUtils______________________________63e948fc46836040518263ffffffff1660e01b815260040161221f9190614a04565b60006040518083038186803b15801561223757600080fd5b505af415801561224b573d6000803e3d6000fd5b505050506040513d6000823e3d601f19601f8201168201806040525061227491908101906142bd565b90506000600281111561228357fe5b6001826040516122939190614995565b908152602001604051809103902060009054906101000a900460ff1660028111156122ba57fe5b146122fa576040517f08c379a00000000000000000000000000000000000000000000000000000000081526004016122f190614b34565b60405180910390fd5b6123048484613423565b5050505050565b6003818051602081018201805184825260208301602085012081835280955050505050506000915090505481565b8173__DIDUtils______________________________63d06c84df826040518263ffffffff1660e01b81526004016123719190614a04565b60206040518083038186803b15801561238957600080fd5b505af415801561239d573d6000803e3d6000fd5b505050506040513d601f19601f820116820180604052506123c19190810190614212565b612400576040517f08c379a00000000000000000000000000000000000000000000000000000000081526004016123f790614af4565b60405180910390fd5b826001600281111561240e57fe5b60018260405161241e9190614995565b908152602001604051809103902060009054906101000a900460ff16600281111561244557fe5b14612485576040517f08c379a000000000000000000000000000000000000000000000000000000000815260040161247c90614b54565b60405180910390fd5b838361248f613f3f565b60008360405161249f9190614995565b90815260200160405180910390206040518060c0016040529081600082018054600181600116156101000203166002900480601f0160208091040260200160405190810160405280929190818152602001828054600181600116156101000203166002900480156125515780601f1061252657610100808354040283529160200191612551565b820191906000526020600020905b81548152906001019060200180831161253457829003601f168201915b5050505050815260200160018201805480602002602001604051908101604052809291908181526020016000905b8282101561263b578382906000526020600020018054600181600116156101000203166002900480601f0160208091040260200160405190810160405280929190818152602001828054600181600116156101000203166002900480156126275780601f106125fc57610100808354040283529160200191612627565b820191906000526020600020905b81548152906001019060200180831161260a57829003601f168201915b50505050508152602001906001019061257f565b50505050815260200160028201805480602002602001604051908101604052809291908181526020016000905b8282101561289b5783829060005260206000209060040201604051806080016040529081600082018054600181600116156101000203166002900480601f0160208091040260200160405190810160405280929190818152602001828054600181600116156101000203166002900480156127245780601f106126f957610100808354040283529160200191612724565b820191906000526020600020905b81548152906001019060200180831161270757829003601f168201915b50505050508152602001600182018054600181600116156101000203166002900480601f0160208091040260200160405190810160405280929190818152602001828054600181600116156101000203166002900480156127c65780601f1061279b576101008083540402835291602001916127c6565b820191906000526020600020905b8154815290600101906020018083116127a957829003601f168201915b50505050508152602001600282018054600181600116156101000203166002900480601f0160208091040260200160405190810160405280929190818152602001828054600181600116156101000203166002900480156128685780601f1061283d57610100808354040283529160200191612868565b820191906000526020600020905b81548152906001019060200180831161284b57829003601f168201915b505050505081526020016003820160009054906101000a900460ff16151515158152505081526020019060010190612668565b505050508152602001600382018054600181600116156101000203166002900480601f01602080910402602001604051908101604052809291908181526020018280546001816001161561010002031660029004801561293c5780601f106129115761010080835404028352916020019161293c565b820191906000526020600020905b81548152906001019060200180831161291f57829003601f168201915b50505050508152602001600482018054600181600116156101000203166002900480601f0160208091040260200160405190810160405280929190818152602001828054600181600116156101000203166002900480156129de5780601f106129b3576101008083540402835291602001916129de565b820191906000526020600020905b8154815290600101906020018083116129c157829003601f168201915b5050505050815260200160058201805480602002602001604051908101604052809291908181526020016000905b82821015612ac8578382906000526020600020018054600181600116156101000203166002900480601f016020809104026020016040519081016040528092919081815260200182805460018160011615610100020316600290048015612ab45780601f10612a8957610100808354040283529160200191612ab4565b820191906000526020600020905b815481529060010190602001808311612a9757829003601f168201915b505050505081526020019060010190612a0c565b50505050815250509050606073__DIDUtils______________________________63bbec1843846040518263ffffffff1660e01b8152600401612b0b91906149ac565b60006040518083038186803b158015612b2357600080fd5b505af4158015612b37573d6000803e3d6000fd5b505050506040513d6000823e3d601f19601f82011682018060405250612b6091908101906142bd565b905060008090505b826040015151811015612e6357818051906020012083604001518281518110612b8d57fe5b602002602001015160400151805190602001201415612be1576040517f08c379a0000000000000000000000000000000000000000000000000000000008152600401612bd890614b74565b60405180910390fd5b6000808a604051612bf29190614995565b9081526020016040518091039020600201805490509050606073__DIDUtils______________________________63a4d1444c8c600185016040518363ffffffff1660e01b8152600401612c47929190614ac4565b60006040518083038186803b158015612c5f57600080fd5b505af4158015612c73573d6000803e3d6000fd5b505050506040513d6000823e3d601f19601f82011682018060405250612c9c91908101906142bd565b905060606040518060400160405280602081526020017f4563647361536563703235366b315265636f766572794d6574686f64323032308152509050606073__DIDUtils______________________________63bbec18438d6040518263ffffffff1660e01b8152600401612d1191906149ac565b60006040518083038186803b158015612d2957600080fd5b505af4158015612d3d573d6000803e3d6000fd5b505050506040513d6000823e3d601f19601f82011682018060405250612d6691908101906142bd565b905060008d604051612d789190614995565b9081526020016040518091039020600201604051806080016040528085815260200184815260200183815260200160001515815250908060018154018082558091505090600182039060005260206000209060040201600090919290919091506000820151816000019080519060200190612df4929190614049565b506020820151816001019080519060200190612e11929190614049565b506040820151816002019080519060200190612e2e929190614049565b5060608201518160030160006101000a81548160ff021916908315150217905550505050505050508080600101915050612b68565b505050505050505050565b606084606073__DIDUtils______________________________63e948fc46836040518263ffffffff1660e01b8152600401612eaa9190614a04565b60006040518083038186803b158015612ec257600080fd5b505af4158015612ed6573d6000803e3d6000fd5b505050506040513d6000823e3d601f19601f82011682018060405250612eff91908101906142bd565b905060006002811115612f0e57fe5b600182604051612f1e9190614995565b908152602001604051809103902060009054906101000a900460ff166002811115612f4557fe5b14612f85576040517f08c379a0000000000000000000000000000000000000000000000000000000008152600401612f7c90614b34565b60405180910390fd5b73__DIDUtils______________________________63e948fc46886040518263ffffffff1660e01b8152600401612fbc9190614a04565b60006040518083038186803b158015612fd457600080fd5b505af4158015612fe8573d6000803e3d6000fd5b505050506040513d6000823e3d601f19601f8201168201806040525061301191908101906142bd565b9250606073__DIDUtils______________________________63a4d1444c8560016040518363ffffffff1660e01b815260040161304f929190614a26565b60006040518083038186803b15801561306757600080fd5b505af415801561307b573d6000803e3d6000fd5b505050506040513d6000823e3d601f19601f820116820180604052506130a491908101906142bd565b9050606073__DIDUtils______________________________63bbec1843876040518263ffffffff1660e01b81526004016130df91906149ac565b60006040518083038186803b1580156130f757600080fd5b505af415801561310b573d6000803e3d6000fd5b505050506040513d6000823e3d601f19601f8201168201806040525061313491908101906142bd565b905060606040518060400160405280602081526020017f4563647361536563703235366b315265636f766572794d6574686f64323032308152509050613178613f9f565b6040518060800160405280858152602001838152602001848152602001600015158152509050866000886040516131af9190614995565b908152602001604051809103902060000190805190602001906131d3929190613fc9565b506000876040516131e49190614995565b90815260200160405180910390206001018060018154018082558091505090600182039060005260206000200160006040518060400160405280601c81526020017f68747470733a2f2f7777772e77332e6f72672f6e732f6469642f76310000000081525090919091509080519060200190613261929190613fc9565b50506000876040516132739190614995565b9081526020016040518091039020600201819080600181540180825580915050906001820390600052602060002090600402016000909192909190915060008201518160000190805190602001906132cc929190614049565b5060208201518160010190805190602001906132e9929190614049565b506040820151816002019080519060200190613306929190614049565b5060608201518160030160006101000a81548160ff0219169083151502179055505050508960008860405161333b9190614995565b9081526020016040518091039020600401908051906020019061335f929190613fc9565b50886000886040516133719190614995565b90815260200160405180910390206003019080519060200190613395929190613fc9565b5060016002886040516133a89190614995565b908152602001604051809103902060006101000a81548160ff021916908360018111156133d157fe5b0217905550600180886040516133e79190614995565b908152602001604051809103902060006101000a81548160ff0219169083600281111561341057fe5b0217905550505050505050949350505050565b60608273__DIDUtils______________________________63d06c84df826040518263ffffffff1660e01b815260040161345d9190614a04565b60206040518083038186803b15801561347557600080fd5b505af4158015613489573d6000803e3d6000fd5b505050506040513d601f19601f820116820180604052506134ad9190810190614212565b6134ec576040517f08c379a00000000000000000000000000000000000000000000000000000000081526004016134e390614af4565b60405180910390fd5b83600160028111156134fa57fe5b60018260405161350a9190614995565b908152602001604051809103902060009054906101000a900460ff16600281111561353157fe5b14613571576040517f08c379a000000000000000000000000000000000000000000000000000000000815260040161356890614b54565b60405180910390fd5b848461357b613f3f565b60008360405161358b9190614995565b90815260200160405180910390206040518060c0016040529081600082018054600181600116156101000203166002900480601f01602080910402602001604051908101604052809291908181526020018280546001816001161561010002031660029004801561363d5780601f106136125761010080835404028352916020019161363d565b820191906000526020600020905b81548152906001019060200180831161362057829003601f168201915b5050505050815260200160018201805480602002602001604051908101604052809291908181526020016000905b82821015613727578382906000526020600020018054600181600116156101000203166002900480601f0160208091040260200160405190810160405280929190818152602001828054600181600116156101000203166002900480156137135780601f106136e857610100808354040283529160200191613713565b820191906000526020600020905b8154815290600101906020018083116136f657829003601f168201915b50505050508152602001906001019061366b565b50505050815260200160028201805480602002602001604051908101604052809291908181526020016000905b828210156139875783829060005260206000209060040201604051806080016040529081600082018054600181600116156101000203166002900480601f0160208091040260200160405190810160405280929190818152602001828054600181600116156101000203166002900480156138105780601f106137e557610100808354040283529160200191613810565b820191906000526020600020905b8154815290600101906020018083116137f357829003601f168201915b50505050508152602001600182018054600181600116156101000203166002900480601f0160208091040260200160405190810160405280929190818152602001828054600181600116156101000203166002900480156138b25780601f10613887576101008083540402835291602001916138b2565b820191906000526020600020905b81548152906001019060200180831161389557829003601f168201915b50505050508152602001600282018054600181600116156101000203166002900480601f0160208091040260200160405190810160405280929190818152602001828054600181600116156101000203166002900480156139545780601f1061392957610100808354040283529160200191613954565b820191906000526020600020905b81548152906001019060200180831161393757829003601f168201915b505050505081526020016003820160009054906101000a900460ff16151515158152505081526020019060010190613754565b505050508152602001600382018054600181600116156101000203166002900480601f016020809104026020016040519081016040528092919081815260200182805460018160011615610100020316600290048015613a285780601f106139fd57610100808354040283529160200191613a28565b820191906000526020600020905b815481529060010190602001808311613a0b57829003601f168201915b50505050508152602001600482018054600181600116156101000203166002900480601f016020809104026020016040519081016040528092919081815260200182805460018160011615610100020316600290048015613aca5780601f10613a9f57610100808354040283529160200191613aca565b820191906000526020600020905b815481529060010190602001808311613aad57829003601f168201915b5050505050815260200160058201805480602002602001604051908101604052809291908181526020016000905b82821015613bb4578382906000526020600020018054600181600116156101000203166002900480601f016020809104026020016040519081016040528092919081815260200182805460018160011615610100020316600290048015613ba05780601f10613b7557610100808354040283529160200191613ba0565b820191906000526020600020905b815481529060010190602001808311613b8357829003601f168201915b505050505081526020019060010190613af8565b50505050815250509050606073__DIDUtils______________________________63bbec1843846040518263ffffffff1660e01b8152600401613bf791906149ac565b60006040518083038186803b158015613c0f57600080fd5b505af4158015613c23573d6000803e3d6000fd5b505050506040513d6000823e3d601f19601f82011682018060405250613c4c91908101906142bd565b905060008090505b826040015151811015613f3257818051906020012083604001518281518110613c7957fe5b602002602001015160400151805190602001201415613ccd576040517f08c379a0000000000000000000000000000000000000000000000000000000008152600401613cc490614b74565b60405180910390fd5b6000808b604051613cde9190614995565b9081526020016040518091039020600201805490509050606073__DIDUtils______________________________63a4d1444c8d600185016040518363ffffffff1660e01b8152600401613d33929190614ac4565b60006040518083038186803b158015613d4b57600080fd5b505af4158015613d5f573d6000803e3d6000fd5b505050506040513d6000823e3d601f19601f82011682018060405250613d8891908101906142bd565b90506060604051806060016040528060218152602001614e3a602191399050606073__DIDUtils______________________________63bbec18438e6040518263ffffffff1660e01b8152600401613de091906149ac565b60006040518083038186803b158015613df857600080fd5b505af4158015613e0c573d6000803e3d6000fd5b505050506040513d6000823e3d601f19601f82011682018060405250613e3591908101906142bd565b905060008e604051613e479190614995565b9081526020016040518091039020600201604051806080016040528085815260200184815260200183815260200160001515815250908060018154018082558091505090600182039060005260206000209060040201600090919290919091506000820151816000019080519060200190613ec3929190614049565b506020820151816001019080519060200190613ee0929190614049565b506040820151816002019080519060200190613efd929190614049565b5060608201518160030160006101000a81548160ff021916908315150217905550505050505050508080600101915050613c54565b5050505050505092915050565b6040518060c001604052806060815260200160608152602001606081526020016060815260200160608152602001606081525090565b60405180608001604052806060815260200160608152602001606081526020016000151581525090565b60405180608001604052806060815260200160608152602001606081526020016000151581525090565b828054600181600116156101000203166002900490600052602060002090601f016020900481019282601f1061400a57805160ff1916838001178555614038565b82800160010185558215614038579182015b8281111561403757825182559160200191906001019061401c565b5b50905061404591906140c9565b5090565b828054600181600116156101000203166002900490600052602060002090601f016020900481019282601f1061408a57805160ff19168380011785556140b8565b828001600101855582156140b8579182015b828111156140b757825182559160200191906001019061409c565b5b5090506140c591906140c9565b5090565b6140eb91905b808211156140e75760008160009055506001016140cf565b5090565b90565b60006140fa8235614d84565b905092915050565b600061410e8251614d96565b905092915050565b600082601f83011261412757600080fd5b813561413a61413582614bfe565b614bd1565b9150808252602083016020830185838301111561415657600080fd5b614161838284614de6565b50505092915050565b600082601f83011261417b57600080fd5b813561418e61418982614c2a565b614bd1565b915080825260208301602083018583830111156141aa57600080fd5b6141b5838284614de6565b50505092915050565b600082601f8301126141cf57600080fd5b81516141e26141dd82614c2a565b614bd1565b915080825260208301602083018583830111156141fe57600080fd5b614209838284614df5565b50505092915050565b60006020828403121561422457600080fd5b600061423284828501614102565b91505092915050565b60006020828403121561424d57600080fd5b600082013567ffffffffffffffff81111561426757600080fd5b61427384828501614116565b91505092915050565b60006020828403121561428e57600080fd5b600082013567ffffffffffffffff8111156142a857600080fd5b6142b48482850161416a565b91505092915050565b6000602082840312156142cf57600080fd5b600082015167ffffffffffffffff8111156142e957600080fd5b6142f5848285016141be565b91505092915050565b6000806040838503121561431157600080fd5b600083013567ffffffffffffffff81111561432b57600080fd5b6143378582860161416a565b9250506020614348858286016140ee565b9150509250929050565b6000806040838503121561436557600080fd5b600083013567ffffffffffffffff81111561437f57600080fd5b61438b8582860161416a565b925050602083013567ffffffffffffffff8111156143a857600080fd5b6143b48582860161416a565b9150509250929050565b600080600080608085870312156143d457600080fd5b600085013567ffffffffffffffff8111156143ee57600080fd5b6143fa8782880161416a565b945050602085013567ffffffffffffffff81111561441757600080fd5b6144238782880161416a565b935050604085013567ffffffffffffffff81111561444057600080fd5b61444c8782880161416a565b925050606061445d878288016140ee565b91505092959194509250565b60006144758383614652565b905092915050565b60006144898383614906565b905092915050565b61449a81614d28565b82525050565b60006144ab82614c82565b6144b58185614cc8565b9350836020820285016144c785614c56565b60005b848110156145005783830388526144e2838351614469565b92506144ed82614cae565b91506020880197506001810190506144ca565b508196508694505050505092915050565b600061451c82614c8d565b6145268185614cd9565b93508360208202850161453885614c63565b60005b8481101561457157838303885261455383835161447d565b925061455e82614cbb565b915060208801975060018101905061453b565b508196508694505050505092915050565b61458b81614d3a565b82525050565b61459a81614dc2565b82525050565b6145a981614dd4565b82525050565b60006145ba82614ca3565b6145c48185614cfb565b93506145d4818560208601614df5565b6145dd81614e28565b840191505092915050565b60006145f382614ca3565b6145fd8185614d0c565b935061460d818560208601614df5565b61461681614e28565b840191505092915050565b600061462c82614ca3565b6146368185614d1d565b9350614646818560208601614df5565b80840191505092915050565b600061465d82614c98565b6146678185614cea565b9350614677818560208601614df5565b61468081614e28565b840191505092915050565b6000815460018116600081146146a857600181146146ce57614712565b607f60028304166146b98187614d0c565b955060ff198316865260208601935050614712565b600282046146dc8187614d0c565b95506146e785614c70565b60005b82811015614709578154818901526001820191506020810190506146ea565b80880195505050505b505092915050565b6000614727600e83614cfb565b91507f496e76616c696420666f726d61740000000000000000000000000000000000006000830152602082019050919050565b6000614767600483614cfb565b91507f4e6f6e65000000000000000000000000000000000000000000000000000000006000830152602082019050919050565b60006147a7601783614cfb565b91507f416c72656164792045786973747320446f63756d656e740000000000000000006000830152602082019050919050565b60006147e7601383614cfb565b91507f4e6f6e65206f72204465616374697661746564000000000000000000000000006000830152602082019050919050565b6000614827601683614cfb565b91507f416c7265616479204578697374732041646472657373000000000000000000006000830152602082019050919050565b600060c08301600083015184820360008601526148778282614652565b9150506020830151848203602086015261489182826144a0565b915050604083015184820360408601526148ab8282614511565b915050606083015184820360608601526148c58282614652565b915050608083015184820360808601526148df8282614652565b91505060a083015184820360a08601526148f982826144a0565b9150508091505092915050565b600060808301600083015184820360008601526149238282614652565b9150506020830151848203602086015261493d8282614652565b915050604083015184820360408601526149578282614652565b915050606083015161496c6060860182614582565b508091505092915050565b61498081614d7a565b82525050565b61498f81614d7a565b82525050565b60006149a18284614621565b915081905092915050565b60006020820190506149c16000830184614491565b92915050565b60006020820190506149dc6000830184614591565b92915050565b600060208201905081810360008301526149fc81846145af565b905092915050565b60006020820190508181036000830152614a1e81846145e8565b905092915050565b60006040820190508181036000830152614a4081856145e8565b9050614a4f60208301846145a0565b9392505050565b60006040820190508181036000830152614a7081856145e8565b90508181036020830152614a8481846145e8565b90509392505050565b60006040820190508181036000830152614aa781856145e8565b90508181036020830152614abb818461468b565b90509392505050565b60006040820190508181036000830152614ade81856145e8565b9050614aed6020830184614986565b9392505050565b60006020820190508181036000830152614b0d8161471a565b9050919050565b60006020820190508181036000830152614b2d8161475a565b9050919050565b60006020820190508181036000830152614b4d8161479a565b9050919050565b60006020820190508181036000830152614b6d816147da565b9050919050565b60006020820190508181036000830152614b8d8161481a565b9050919050565b60006020820190508181036000830152614bae818461485a565b905092915050565b6000602082019050614bcb6000830184614977565b92915050565b6000604051905081810181811067ffffffffffffffff82111715614bf457600080fd5b8060405250919050565b600067ffffffffffffffff821115614c1557600080fd5b601f19601f8301169050602081019050919050565b600067ffffffffffffffff821115614c4157600080fd5b601f19601f8301169050602081019050919050565b6000602082019050919050565b6000602082019050919050565b60008160005260206000209050919050565b600081519050919050565b600081519050919050565b600081519050919050565b600081519050919050565b6000602082019050919050565b6000602082019050919050565b600082825260208201905092915050565b600082825260208201905092915050565b600082825260208201905092915050565b600082825260208201905092915050565b600082825260208201905092915050565b600081905092915050565b6000614d3382614d5a565b9050919050565b60008115159050919050565b600060038210614d5257fe5b819050919050565b600073ffffffffffffffffffffffffffffffffffffffff82169050919050565b6000819050919050565b6000614d8f82614da2565b9050919050565b60008115159050919050565b600073ffffffffffffffffffffffffffffffffffffffff82169050919050565b6000614dcd82614d46565b9050919050565b6000614ddf82614d7a565b9050919050565b82818337600083830152505050565b60005b83811015614e13578082015181840152602081019050614df8565b83811115614e22576000848401525b50505050565b6000601f19601f830116905091905056fe4563647361536563703235366b31566572696669636174696f6e4b657932303139a265627a7a723058207c7307ef175a3f4bcfd5093dfadfc9edfd8e7cc5a5613a1b5e54f0372d2484c66c6578706572696d656e74616cf50037",
  "source": "pragma solidity 0.5.6;\npragma experimental ABIEncoderV2;\n\nimport './DIDStorage.sol';\nimport './DIDUtils.sol';\n\n//#orign : \n/**\n * @title DidLedger\n * @dev This contract is did document storage implementation\n */\n// \"did:kt:6f4303aa6cea2b0fae462fa9cc792443c03a0609\"\ncontract DIDLedger is DIDStorage {\n\n    modifier checkExistDom(string memory userInfo){\n        string memory did = DIDUtils.genDid(userInfo);\n//#orign        string memory did = DIDUtils.genDid(msg.sender);\n        //1-1-1.  did  ,     **\n        require(didState[did] == DIDState.None,\"Already Exists Document\");\n        _;\n    }\n    \n    modifier recheckExistDom(string memory userInfo){\n        string memory did = DIDUtils.genDid(userInfo);\n        require(didState[did] == DIDState.Active || didState[did] == DIDState.Deactivated ,\"None\");\n        _;\n    }\n\n    modifier checkActiveDom(string memory did){\n        require(didState[did] == DIDState.Active,\"None or Deactivated\");\n        _;\n    }\n\n    modifier checkExistAddr(string memory did,address addr_){// pubkey  \n        Document memory dom = documents[did];\n        string memory addr = DIDUtils.genAddrKey(addr_);\n        //uint256 dup = 0\n        for(uint256 i=0;i<dom.publicKeys.length;i++){\n            require(keccak256(bytes(dom.publicKeys[i].pubKeyData)) != keccak256(bytes(addr)),'Already Exists Address');\n            _;\n        }\n    }\n\n    modifier verifyFormat(string memory did){\n        require(DIDUtils.verifyDidFormat(did),'Invalid format');\n        _;\n    }\n\n\n    \n    function create_view(\n        string memory userInfo) public view\n        returns(Document memory)\n    {\n        string memory did = DIDUtils.genDid(userInfo);\n        Document memory dom = documents[did];\n        // for(uint256 i=0;i<dom.publicKeys.length;i++){\n        //     if(dom.publicKeys[i].disable) delete dom.publicKeys[i];\n        // }\n        return dom;\n\n\n    }\n\n    function getStateDom(\n        string memory did) public view\n        returns(DIDState)\n    {\n        \n        return didState[did];\n\n\n    }\n\n    // 1. did  did \n    // 1-1. did    checkExistDom \n    function create(\n        string memory userInfo,\n        address addr) public \n        checkExistDom(userInfo)\n        returns(string memory did)\n    {\n        //1-1-2.  did  , did   did \n        //userInfo = '6f4303aa6cea2b0fae462fa9cc792443c03a0609';\n        did = DIDUtils.genDid(userInfo);\n        string memory keyID = DIDUtils.genPublicKeyID(did,1);\n        string memory addrKey = DIDUtils.genAddrKey(addr);\n        string memory keyType = 'EcdsaSecp256k1RecoveryMethod2020';\n        PublicKey memory defaultKey = PublicKey(keyID,keyType,addrKey,false);\n                                   // https://www.w3.org/ns/did ->  \n        documents[did].contexts.push(\"https://www.w3.org/ns/did/v1\");\n        documents[did].id = did;\n        documents[did].publicKeys.push(defaultKey);\n        didState[did] = DIDState.Active;\n        idType[did] = IdType.User;\n    }\n\n    function getDocument(string memory did) public view \n        verifyFormat(did) \n        returns(Document memory) \n    {\n        Document memory dom = documents[did];\n        // for(uint256 i=0;i<dom.services.length;i++){\n        //     if(dom.services[i].disable) delete dom.services[i];\n        // }\n        for(uint256 i=0;i<dom.publicKeys.length;i++){\n            if(dom.publicKeys[i].disable) delete dom.publicKeys[i];\n        }\n        return  dom;\n    }\n\n\n    //'EcdsaSecp256k1VerificationKey2019'\n\n    function addPubKey(\n        string memory did,\n        address addr) public \n        checkExistDom(did)\n    {\n        _addPubKey(did,addr);        \n    }\n    \n    \n    function _addPubKey(\n        string memory did,\n        address addr) internal \n        verifyFormat(did) checkActiveDom(did) checkExistAddr(did,addr)\n        returns(string memory)\n    {\n        uint256 index = documents[did].publicKeys.length;\n        string memory keyID = DIDUtils.genPublicKeyID(did,index+1);\n        string memory keyType = 'EcdsaSecp256k1VerificationKey2019';\n        string memory keyAddr = DIDUtils.genAddrKey(addr);\n        documents[did].publicKeys.push(PublicKey(keyID,keyType,keyAddr,false));\n    }\n    \n    //'EcdsaSecp256k1RecoveryMethod2020'\n    \n    function addAddrKey(\n        string memory did,\n        address addr) public \n        checkExistDom(did)\n    {\n        _addAddrKey(did,addr);        \n    }\n   \n    function _addAddrKey(\n        string memory did,\n        address addr) internal \n        verifyFormat(did) checkActiveDom(did) checkExistAddr(did,addr)\n    {\n        uint256 index = documents[did].publicKeys.length;\n        string memory keyID = DIDUtils.genPublicKeyID(did,index+1);\n        string memory keyType = 'EcdsaSecp256k1RecoveryMethod2020';\n        string memory keyAddr = DIDUtils.genAddrKey(addr);\n        documents[did].publicKeys.push(PublicKey(keyID,keyType,keyAddr,false));  \n    }\n\n    // add service\n    function createSvc(\n        string memory svcInfo,\n        string memory endPoint,\n        string memory svcType,\n        address addr) public \n    {\n        _createSvc(svcInfo,endPoint,svcType,addr);    \n    }\n\n\n    function _createSvc(\n        string memory svcInfo,\n        string memory endPoint,\n        string memory svcType,\n        address addr) internal \n        checkExistDom(svcInfo)\n        returns(string memory svcId)\n    {\n        svcId = DIDUtils.genDid(svcInfo);\n        string memory keyID = DIDUtils.genPublicKeyID(svcId,1);\n        string memory addrKey = DIDUtils.genAddrKey(addr);\n        string memory keyType = 'EcdsaSecp256k1RecoveryMethod2020';\n        PublicKey memory defaultKey = PublicKey(keyID,keyType,addrKey,false);\n        documents[svcId].id = svcId;\n        documents[svcId].contexts.push(\"https://www.w3.org/ns/did/v1\");\n        documents[svcId].publicKeys.push(defaultKey);\n        documents[svcId].svcEndPoint=endPoint;\n        documents[svcId].svcType=svcType;\n        idType[svcId] = IdType.Service;\n        didState[svcId] = DIDState.Active;\n    }\n\n/* modify */\n\n    function reCreate(\n        string memory userInfo,\n        address addr) public //Active or Deactivated  \n        recheckExistDom(userInfo)\n    {\n        string memory did = DIDUtils.genDid(userInfo);\n        \n        if (didState[did]==DIDState.Active) disableDom(did); //dom, publickey list ALL Disable\n\n        documents[did].contexts.push(\"https://www.w3.org/ns/did/v1\");\n        idType[did] = IdType.User;\n        didState[did] = DIDState.Active;\n\n        bool activeKey = false;\n        string memory addrKey = DIDUtils.genAddrKey(addr);\n        for(uint256 i=0;i<documents[did].publicKeys.length;i++){\n            if(DIDUtils.equalString(addrKey,documents[did].publicKeys[i].pubKeyData)) {\n                activeKey = true;\n                documents[did].publicKeys[i].disable = false;\n            }\n        }\n        \n        if(activeKey == false) _addAddrKey(did,addr); \n        \n    }\n\n\n\n    function disableDom(\n        string memory did\n    ) public checkActiveDom(did)\n    {\n        didState[did] = DIDState.Deactivated;\n\n        \n\n        for(uint256 i=0;i<documents[did].publicKeys.length;i++){\n            if(documents[did].publicKeys[i].disable==false) {\n                documents[did].publicKeys[i].disable = true;\n                \n            }\n        }\n\n    }\n    \n    function disableKey(\n        string memory did,\n        string memory targetId ) \n        public verifyFormat(did) checkActiveDom(did)    \n    {\n        for(uint256 i=0; i<documents[did].publicKeys.length; i++){\n            string memory id = documents[did].publicKeys[i].id;\n            if(DIDUtils.equalString(id,targetId)){\n                documents[did].publicKeys[i].disable = true;\n            }\n        }\n    }\n\n    \n\n/* ------- */\n\n\n\n\n    function recoverSignature(\n        string memory did, \n        string memory fType, \n        uint8 sigV, bytes32 sigR, bytes32 sigS) internal \n        returns(address)\n    {\n        bytes32 hash =  DIDUtils.genSignHash(fType, address(this), nonce[did], did);\n        address signer = ecrecover(hash, sigV, sigR, sigS);\n        nonce[did]++;\n        return signer;\n    }\n\n}\n\n//",
  "sourcePath": "/home/pslab154/project/findid-registry-dev/contracts/DIDLedger.sol",
  "compiler": {
    "name": "solc",
    "version": "0.5.6+commit.b259423e.Emscripten.clang"
  },
  "schemaVersion": "3.4.10",
  "updatedAt": "2022-11-09T14:19:24.691Z",
  "networkType": "ethereum",
  "devdoc": {
    "details": "This contract is did document storage implementation",
    "methods": {},
    "title": "DidLedger"
  },
  "userdoc": {
    "methods": {}
  }
}