{
  "contractName": "DIDStorage",
  "abi": [
    {
      "constant": true,
      "inputs": [
        {
          "name": "",
          "type": "string"
        }
      ],
      "name": "nonce",
      "outputs": [
        {
          "name": "",
          "type": "uint256"
        }
      ],
      "payable": false,
      "stateMutability": "view",
      "type": "function"
    }
  ],
  "bytecode": "0x608060405234801561001057600080fd5b50610159806100206000396000f3fe608060405234801561001057600080fd5b506004361061002b5760003560e01c8063fc14e4ee14610030575b600080fd5b6100e96004803603602081101561004657600080fd5b810190808035906020019064010000000081111561006357600080fd5b82018360208201111561007557600080fd5b8035906020019184600183028401116401000000008311171561009757600080fd5b91908080601f016020809104026020016040519081016040528093929190818152602001838380828437600081840152601f19601f8201169050808301925050505050505091929192905050506100ff565b6040518082815260200191505060405180910390f35b600381805160208101820180518482526020830160208501208183528095505050505050600091509050548156fea165627a7a72305820fc30b93d35d59117a2515f56e821b359ab54ab0e1e3b9f292f6a2046c08dd0e40029",
  "source": "pragma solidity >=0.4.24 <=0.5.6;\n\ncontract DIDStorage{\n\n    // mapping(string => Document[]) documents; //key: 신원인증고유갑, value: 분산id\n    // mapping(string => DIDState) didState;\n    // mapping(string => Service[]) services;\n    // mapping(string => uint) public nonce;\n\n    // enum DIDState {None, Active, Deactivated}\n\n    //     struct PublicKey{\n    //     string id;\n    //     string keyType;\n    //     string pubKeyData;\n    //     bool disable;\n    // }\n\n    // struct Document{\n    //     string[] contexts;  //\"https://www.w3.org/ns/did/v1\" 왜 배열이야 ?\n    //     string id;\n    //     PublicKey[] publicKeys;\n    //     string[] credentials;\n    // }\n\n    // struct Service{\n    //     string id;\n    //     PublicKey[] publicKeys;\n    //     string serviceType; //issuer, verifier\n    //     string endPoint;\n    //     bool disable;\n    // }\n\n\n\n    mapping(string => Document) documents;\n    mapping(string => DIDState) didState;\n    mapping(string => IdType) idType;\n    mapping(string => uint) public nonce;\n    \n    enum DIDState {None, Active, Deactivated}\n    enum IdType { User, Service }\n\n    struct PublicKey{\n        string id;\n        string keyType;\n        string pubKeyData;\n        bool disable;\n    }\n    /*\n    struct Service{\n        string id;\n        string serviceType;\n        string serviceEndPoint;\n        PublicKey[] publickeys;\n        bool disable;\n    }\n    */\n    \n    struct Document{\n        string id;\n        string[] contexts;  //\"https://www.w3.org/ns/did/v1\" 왜 배열이야 ?\n        PublicKey[] publicKeys;\n        string svcType; //svc 인경우\n        string svcEndPoint; //svc 인경우\n        string[] credentials;\n    }\n\n\n}\n",
  "sourcePath": "/home/pslab154/project/findid-registry-dev/contracts/DIDStorage.sol",
  "compiler": {
    "name": "solc",
    "version": "0.5.6+commit.b259423e.Emscripten.clang"
  },
  "schemaVersion": "3.4.10",
  "updatedAt": "2022-11-09T14:19:24.730Z",
  "networkType": "ethereum",
  "devdoc": {
    "methods": {}
  },
  "userdoc": {
    "methods": {}
  }
}