{
  "contractName": "DIDUtils",
  "abi": [
    {
      "constant": true,
      "inputs": [
        {
          "name": "did",
          "type": "string"
        }
      ],
      "name": "verifyDidFormat",
      "outputs": [
        {
          "name": "",
          "type": "bool"
        }
      ],
      "payable": false,
      "stateMutability": "pure",
      "type": "function"
    },
    {
      "constant": true,
      "inputs": [
        {
          "name": "did",
          "type": "string"
        },
        {
          "name": "actor",
          "type": "string"
        },
        {
          "name": "controller",
          "type": "string"
        }
      ],
      "name": "verifyOwners",
      "outputs": [
        {
          "name": "",
          "type": "bool"
        }
      ],
      "payable": false,
      "stateMutability": "pure",
      "type": "function"
    },
    {
      "constant": true,
      "inputs": [
        {
          "name": "userInfo",
          "type": "string"
        }
      ],
      "name": "genDid",
      "outputs": [
        {
          "name": "",
          "type": "string"
        }
      ],
      "payable": false,
      "stateMutability": "pure",
      "type": "function"
    },
    {
      "constant": true,
      "inputs": [
        {
          "name": "did",
          "type": "string"
        },
        {
          "name": "index",
          "type": "uint256"
        }
      ],
      "name": "genPublicKeyID",
      "outputs": [
        {
          "name": "",
          "type": "string"
        }
      ],
      "payable": false,
      "stateMutability": "pure",
      "type": "function"
    },
    {
      "constant": true,
      "inputs": [
        {
          "name": "addr",
          "type": "address"
        }
      ],
      "name": "genAddrKey",
      "outputs": [
        {
          "name": "",
          "type": "string"
        }
      ],
      "payable": false,
      "stateMutability": "pure",
      "type": "function"
    },
    {
      "constant": true,
      "inputs": [
        {
          "name": "did",
          "type": "string"
        },
        {
          "name": "id",
          "type": "string"
        }
      ],
      "name": "genFragment",
      "outputs": [
        {
          "name": "",
          "type": "string"
        }
      ],
      "payable": false,
      "stateMutability": "pure",
      "type": "function"
    },
    {
      "constant": true,
      "inputs": [
        {
          "name": "fType",
          "type": "string"
        },
        {
          "name": "ledger",
          "type": "address"
        },
        {
          "name": "nonce",
          "type": "uint256"
        },
        {
          "name": "did",
          "type": "string"
        }
      ],
      "name": "genSignHash",
      "outputs": [
        {
          "name": "signHash",
          "type": "bytes32"
        }
      ],
      "payable": false,
      "stateMutability": "view",
      "type": "function"
    },
    {
      "constant": true,
      "inputs": [
        {
          "name": "str1",
          "type": "string"
        },
        {
          "name": "str2",
          "type": "string"
        }
      ],
      "name": "equalString",
      "outputs": [
        {
          "name": "",
          "type": "bool"
        }
      ],
      "payable": false,
      "stateMutability": "pure",
      "type": "function"
    },
    {
      "constant": true,
      "inputs": [
        {
          "name": "i",
          "type": "uint256"
        }
      ],
      "name": "uintToStr",
      "outputs": [
        {
          "name": "",
          "type": "string"
        }
      ],
      "payable": false,
      "stateMutability": "pure",
      "type": "function"
    }
  ],
  "bytecode": "0x61148f610026600b82828239805160001a60731461001957fe5b30600052607381538281f3fe730000000000000000000000000000000000000000301460806040526004361061009d5760003560e01c8063bbec184311610070578063bbec184314610162578063c754a53a14610192578063d06c84df146101c2578063e948fc46146101f2578063fc966d45146102225761009d565b806344dd41e7146100a257806356b79f61146100d2578063a4d1444c14610102578063b01bd81714610132575b600080fd5b6100bc60048036036100b79190810190610e78565b610252565b6040516100c991906112c2565b60405180910390f35b6100ec60048036036100e79190810190610de5565b610266565b6040516100f991906112dd565b60405180910390f35b61011c60048036036101179190810190610f7b565b610341565b60405161012991906112f8565b60405180910390f35b61014c60048036036101479190810190610e78565b610375565b60405161015991906112f8565b60405180910390f35b61017c60048036036101779190810190610d7b565b6103a1565b60405161018991906112f8565b60405180910390f35b6101ac60048036036101a79190810190610ee4565b6103d2565b6040516101b991906112c2565b60405180910390f35b6101dc60048036036101d79190810190610da4565b610410565b6040516101e991906112c2565b60405180910390f35b61020c60048036036102079190810190610da4565b6104ba565b60405161021991906112f8565b60405180910390f35b61023c60048036036102379190810190610fcf565b6104e3565b60405161024991906112f8565b60405180910390f35b600061025e83836104f5565b905092915050565b600060606040518060400160405280601881526020017f194b6c6179746e205369676e6564204d6573736167653a0a0000000000000000815250905060606102ad86610562565b6040516020016102bd919061127e565b6040516020818303038152906040529050606087826102db886106b1565b876040516020016102ef94939291906111e2565b60405160208183030381529060405290508261030b82516106b1565b8260405160200161031e939291906111b1565b604051602081830303815290604052805190602001209350505050949350505050565b60608261034d836106b1565b60405160200161035e929190611220565b604051602081830303815290604052905092915050565b6060828260405160200161038a92919061124f565b604051602081830303815290604052905092915050565b60606103ac82610562565b6040516020016103bc919061127e565b6040516020818303038152906040529050919050565b60006103de84846104f5565b156103ec5760019050610409565b6103f682846104f5565b156104045760019050610409565b600090505b9392505050565b60006060829050604781511461042a5760009150506104b5565b60606040518060400160405280600781526020017f6469643a6b743a000000000000000000000000000000000000000000000000008152509050606061047383600084516107de565b9050606061048c61048785855160406107de565b61086a565b905061049883836104f5565b6104a95760009450505050506104b5565b60208151149450505050505b919050565b6060816040516020016104cd91906112a0565b6040516020818303038152906040529050919050565b60606104ee826106b1565b9050919050565b60008060019050835183518114600181146105135760009250610556565b600160208701838101602088015b6002848385100114156105515780518351146105405760009650600093505b602083019250602081019050610521565b505050505b50508091505092915050565b60608060286040519080825280601f01601f1916602001820160405280156105995781602001600182028038833980820191505090505b50905060008090505b60148110156106a75760008160130360080260020a8573ffffffffffffffffffffffffffffffffffffffff16816105d557fe5b0460f81b9050600060108260f81c60ff16816105ed57fe5b0460f81b905060008160f81c6010028360f81c0360f81b905061060f82610989565b85856002028151811061061e57fe5b60200101907effffffffffffffffffffffffffffffffffffffffffffffffffffffffffffff1916908160001a90535061065681610989565b85600186600202018151811061066857fe5b60200101907effffffffffffffffffffffffffffffffffffffffffffffffffffffffffffff1916908160001a90535050505080806001019150506105a2565b5080915050919050565b606060008214156106f9576040518060400160405280600181526020017f300000000000000000000000000000000000000000000000000000000000000081525090506107d9565b600082905060005b60008214610723578080600101915050600a828161071b57fe5b049150610701565b6060816040519080825280601f01601f1916602001820160405280156107585781602001600182028038833980820191505090505b50905060006001830390505b600086146107d157600a868161077657fe5b0660300160f81b8282806001900393508151811061079057fe5b60200101907effffffffffffffffffffffffffffffffffffffffffffffffffffffffffffff1916908160001a905350600a86816107c957fe5b049550610764565b819450505050505b919050565b6060818301845110156107f057600080fd5b606082156000811461080d5760405191506020820160405261085e565b6040519150601f8416801560200281840101858101878315602002848b0101015b8183101561084b578051835260208301925060208101905061082e565b50868552601f19601f8301166040525050505b50809150509392505050565b6060808290506000600282518161087d57fe5b061461088857600080fd5b6060600282518161089557fe5b046040519080825280601f01601f1916602001820160405280156108c85781602001600182028038833980820191505090505b50905060008090505b60028351816108dc57fe5b0481101561097e5761090c8360018360020201815181106108f957fe5b602001015160f81c60f81b60f81c6109bd565b601061093385846002028151811061092057fe5b602001015160f81c60f81b60f81c6109bd565b020160f81b82828151811061094457fe5b60200101907effffffffffffffffffffffffffffffffffffffffffffffffffffffffffffff1916908160001a9053508060010190506108d1565b508092505050919050565b6000600a8260f81c60ff1610156109ab5760308260f81c0160f81b90506109b8565b60578260f81c0160f81b90505b919050565b60007f30000000000000000000000000000000000000000000000000000000000000007effffffffffffffffffffffffffffffffffffffffffffffffffffffffffffff19168260f81b7effffffffffffffffffffffffffffffffffffffffffffffffffffffffffffff191610158015610a9d57507f39000000000000000000000000000000000000000000000000000000000000007effffffffffffffffffffffffffffffffffffffffffffffffffffffffffffff19168260f81b7effffffffffffffffffffffffffffffffffffffffffffffffffffffffffffff191611155b15610acf577f300000000000000000000000000000000000000000000000000000000000000060f81c82039050610cfa565b7f61000000000000000000000000000000000000000000000000000000000000007effffffffffffffffffffffffffffffffffffffffffffffffffffffffffffff19168260f81b7effffffffffffffffffffffffffffffffffffffffffffffffffffffffffffff191610158015610bad57507f66000000000000000000000000000000000000000000000000000000000000007effffffffffffffffffffffffffffffffffffffffffffffffffffffffffffff19168260f81b7effffffffffffffffffffffffffffffffffffffffffffffffffffffffffffff191611155b15610be2577f610000000000000000000000000000000000000000000000000000000000000060f81c82600a01039050610cfa565b7f41000000000000000000000000000000000000000000000000000000000000007effffffffffffffffffffffffffffffffffffffffffffffffffffffffffffff19168260f81b7effffffffffffffffffffffffffffffffffffffffffffffffffffffffffffff191610158015610cc057507f46000000000000000000000000000000000000000000000000000000000000007effffffffffffffffffffffffffffffffffffffffffffffffffffffffffffff19168260f81b7effffffffffffffffffffffffffffffffffffffffffffffffffffffffffffff191611155b15610cf5577f410000000000000000000000000000000000000000000000000000000000000060f81c82600a01039050610cfa565b600080fd5b919050565b6000610d0b82356113c6565b905092915050565b600082601f830112610d2457600080fd5b8135610d37610d3282611347565b61131a565b91508082526020830160208301858383011115610d5357600080fd5b610d5e838284611402565b50505092915050565b6000610d7382356113f8565b905092915050565b600060208284031215610d8d57600080fd5b6000610d9b84828501610cff565b91505092915050565b600060208284031215610db657600080fd5b600082013567ffffffffffffffff811115610dd057600080fd5b610ddc84828501610d13565b91505092915050565b60008060008060808587031215610dfb57600080fd5b600085013567ffffffffffffffff811115610e1557600080fd5b610e2187828801610d13565b9450506020610e3287828801610cff565b9350506040610e4387828801610d67565b925050606085013567ffffffffffffffff811115610e6057600080fd5b610e6c87828801610d13565b91505092959194509250565b60008060408385031215610e8b57600080fd5b600083013567ffffffffffffffff811115610ea557600080fd5b610eb185828601610d13565b925050602083013567ffffffffffffffff811115610ece57600080fd5b610eda85828601610d13565b9150509250929050565b600080600060608486031215610ef957600080fd5b600084013567ffffffffffffffff811115610f1357600080fd5b610f1f86828701610d13565b935050602084013567ffffffffffffffff811115610f3c57600080fd5b610f4886828701610d13565b925050604084013567ffffffffffffffff811115610f6557600080fd5b610f7186828701610d13565b9150509250925092565b60008060408385031215610f8e57600080fd5b600083013567ffffffffffffffff811115610fa857600080fd5b610fb485828601610d13565b9250506020610fc585828601610d67565b9150509250929050565b600060208284031215610fe157600080fd5b6000610fef84828501610d67565b91505092915050565b611001816113b0565b82525050565b611010816113bc565b82525050565b600061102182611373565b61102b8185611389565b935061103b818560208601611411565b80840191505092915050565b60006110528261137e565b61105c8185611394565b935061106c818560208601611411565b61107581611444565b840191505092915050565b600061108b8261137e565b61109581856113a5565b93506110a5818560208601611411565b80840191505092915050565b60006110be6005836113a5565b91507f236b65792d0000000000000000000000000000000000000000000000000000006000830152600582019050919050565b60006110fe6002836113a5565b91507f30780000000000000000000000000000000000000000000000000000000000006000830152600282019050919050565b600061113e6007836113a5565b91507f6469643a6b743a000000000000000000000000000000000000000000000000006000830152600782019050919050565b600061117e6001836113a5565b91507f23000000000000000000000000000000000000000000000000000000000000006000830152600182019050919050565b60006111bd8286611016565b91506111c98285611080565b91506111d58284611016565b9150819050949350505050565b60006111ee8287611080565b91506111fa8286611080565b91506112068285611080565b91506112128284611080565b915081905095945050505050565b600061122c8285611080565b9150611237826110b1565b91506112438284611080565b91508190509392505050565b600061125b8285611080565b915061126682611171565b91506112728284611080565b91508190509392505050565b6000611289826110f1565b91506112958284611080565b915081905092915050565b60006112ab82611131565b91506112b78284611080565b915081905092915050565b60006020820190506112d76000830184610ff8565b92915050565b60006020820190506112f26000830184611007565b92915050565b600060208201905081810360008301526113128184611047565b905092915050565b6000604051905081810181811067ffffffffffffffff8211171561133d57600080fd5b8060405250919050565b600067ffffffffffffffff82111561135e57600080fd5b601f19601f8301169050602081019050919050565b600081519050919050565b600081519050919050565b600081905092915050565b600082825260208201905092915050565b600081905092915050565b60008115159050919050565b6000819050919050565b60006113d1826113d8565b9050919050565b600073ffffffffffffffffffffffffffffffffffffffff82169050919050565b6000819050919050565b82818337600083830152505050565b60005b8381101561142f578082015181840152602081019050611414565b8381111561143e576000848401525b50505050565b6000601f19601f830116905091905056fea265627a7a723058204af8d5ac9195f045b8c7f6a4eb0a255eb1acbd56ad9525c71656b584a6ca6ce26c6578706572696d656e74616cf50037",
  "source": "pragma solidity 0.5.6;\npragma experimental ABIEncoderV2;\n\nlibrary DIDUtils{\n    \n    // \"did:kt:6f4303aa6cea2b0fae462fa9cc792443c03a0609\"\n    // \"did:kt:2f0287f661aa87ee5d811fac157cbbe4f6cff8f04bffe26914f224d358b07159\"\n    function verifyDidFormat(string memory did) public pure \n        returns(bool)\n    {\n        bytes memory data = bytes(did);\n        if(data.length != 71) return false;\n        bytes memory prefix = bytes(\"did:kt:\");\n        bytes memory dataPrefix = _slice(data,0,prefix.length);\n        bytes memory userInfoBytes = _fromHex(string(_slice(data,prefix.length,64)));\n        if(!_equal(prefix, dataPrefix)) return false; //did 형식 확인\n        return (userInfoBytes.length == 32);//addressBytes.length == 20);\n    }\n    \n    function verifyOwners(\n        string memory did, \n        string memory actor, \n        string memory controller) public pure returns(bool)\n    {\n        if(_equal(bytes(did), bytes(actor))) return true;\n        if(_equal(bytes(controller), bytes(actor))) return true;\n        return false;\n    }\n    \n    /*\n    function genDid(address addr) public pure returns(string memory)\n    {\n        return string(abi.encodePacked('did:kt:',_addrToString(addr)));\n    }\n    */\n\n    //userInfo : did서버에서 사용자 정보를 해시해서 넘겨준 값 \n    // 6f4303aa6cea2b0fae462fa9cc792443c03a0609\n    function genDid(string memory userInfo) public pure returns(string memory)\n    {\n        return string(abi.encodePacked('did:kt:',userInfo)); //32byte 미만 으로 해야함 \n    }\n    \n    \n    function genPublicKeyID(\n        string memory did, \n        uint256 index) public pure returns(string memory)\n    {\n        return string(abi.encodePacked(did,'#key-', _uintToStr(index)));\n    }\n    \n    //address 형식 변환\n    function genAddrKey(\n        address addr) public pure returns(string memory)\n    {\n        return string(abi.encodePacked('0x',_addrToString(addr)));\n    }\n    \n    \n    function genFragment(\n        string memory did, \n        string memory id) public pure returns(string memory)\n    {\n        return string(abi.encodePacked(did,'#',id));\n    }\n       \n\n    function genSignHash(\n        string memory fType,\n        address ledger,\n        uint256 nonce, \n        string memory did) public view returns(bytes32 signHash)\n    {\n        bytes memory prefix = \"\\x19Klaytn Signed Message:\\n\";\n        string memory registry = string(abi.encodePacked('0x',_addrToString(ledger)));\n        bytes memory message = abi.encodePacked(fType,registry,_uintToStr(nonce),did);\n        return keccak256(abi.encodePacked(prefix,_uintToStr(message.length),message));\n    }\n\n    function equalString(\n        string memory str1, \n        string memory str2) public pure returns(bool)\n    {\n        return _equal(bytes(str1),bytes(str2));\n    }\n    \n    function uintToStr(uint i) public pure returns(string memory){\n        return _uintToStr(i);\n    }\n    \n    \n    function _bytesToAddr(bytes memory _bs)\n        internal\n        pure\n        returns (address addr)\n    {\n        require(_bs.length == 20, \"bytes length does not match address\");\n        assembly {\n            addr := mload(add(_bs, 0x14))\n        }\n    }    \n    \n    \n    function _uintToStr(uint256 _i) internal pure returns(string memory _uintAsString)\n    {\n        if (_i == 0) {\n            return \"0\";\n        }\n        uint256 j = _i;\n        uint256 len;\n        while (j != 0) {\n            len++;\n            j /= 10;\n        }\n        bytes memory bstr = new bytes(len);\n        uint256 k = len - 1;\n        while (_i != 0) {\n            bstr[k--] = bytes1(uint8(48 + (_i % 10)));\n            _i /= 10;\n        }\n        return string(bstr);\n    }\n    \n    \n    function _addrToString(address x) internal pure returns (string memory) {\n        bytes memory s = new bytes(40);\n        for (uint i = 0; i < 20; i++) {\n            byte b = byte(uint8(uint(x) / (2**(8*(19 - i)))));\n            byte hi = byte(uint8(b) / 16);\n            byte lo = byte(uint8(b) - 16 * uint8(hi));\n            s[2*i] = _char(hi);\n            s[2*i+1] = _char(lo);            \n        }\n        return string(s);\n    }\n\n\n    function _char(byte b) internal pure returns (byte c) {\n        if (uint8(b) < 10) return byte(uint8(b) + 0x30);\n        else return byte(uint8(b) + 0x57);\n    }\n\n\n    function _equal(bytes memory _preBytes, bytes memory _postBytes)\n        internal pure returns (bool)\n    {\n        bool success = true;\n        assembly {\n            let length := mload(_preBytes)\n            switch eq(length, mload(_postBytes))\n                case 1 {\n                    let cb := 1\n                    let mc := add(_preBytes, 0x20)\n                    let end := add(mc, length)\n\n                    for {\n                        let cc := add(_postBytes, 0x20)\n                    } eq(add(lt(mc, end), cb), 2) {\n                        mc := add(mc, 0x20)\n                        cc := add(cc, 0x20)\n                    } {\n                        if iszero(eq(mload(mc), mload(cc))) {\n                            success := 0\n                            cb := 0\n                        }\n                    }\n                }\n                default {\n                    success := 0\n                }\n        }\n        return success;\n    }\n    \n    \n    function _slice(bytes memory _bytes,uint256 _start,uint256 _length) \n        internal pure returns (bytes memory) \n    {\n        require(_bytes.length >= (_start + _length));\n        bytes memory tempBytes;\n        assembly {\n            switch iszero(_length)\n                case 0 {\n                    tempBytes := mload(0x40)\n\n                    let lengthmod := and(_length, 31)\n\n                    let mc := add(\n                        add(tempBytes, lengthmod),\n                        mul(0x20, iszero(lengthmod))\n                    )\n                    let end := add(mc, _length)\n                    \n                    for {\n                        let cc := add(\n                            add(\n                                add(_bytes, lengthmod),\n                                mul(0x20, iszero(lengthmod))\n                            ),\n                            _start\n                        )\n                    } lt(mc, end) {\n                        mc := add(mc, 0x20)\n                        cc := add(cc, 0x20)\n                    } {\n                        mstore(mc, mload(cc))\n                    }\n                    mstore(tempBytes, _length)\n                    mstore(0x40, and(add(mc, 31), not(31)))\n                }\n                default {\n                    tempBytes := mload(0x40)\n\n                    mstore(0x40, add(tempBytes, 0x20))\n                }\n        }\n        return tempBytes;\n    }\n    \n    //study\n    function _fromHex(string memory s) internal pure returns (bytes memory) {\n        bytes memory ss = bytes(s); //40자\n        require(ss.length % 2 == 0);\n        bytes memory r = new bytes(ss.length / 2);\n        for (uint256 i = 0; i < ss.length / 2; ++i) {\n            r[i] = bytes1(\n                _fromHexChar(uint8(ss[2 * i])) *\n                    16 +\n                    _fromHexChar(uint8(ss[2 * i + 1]))\n            );\n        }\n        return r;\n    }\n    \n    \n    function _fromHexChar(uint8 c) internal pure returns (uint8) {\n        if (bytes1(c) >= bytes1(\"0\") && bytes1(c) <= bytes1(\"9\")) {\n            return c - uint8(bytes1(\"0\"));\n        }\n        if (bytes1(c) >= bytes1(\"a\") && bytes1(c) <= bytes1(\"f\")) {\n            return 10 + c - uint8(bytes1(\"a\"));\n        }\n        if (bytes1(c) >= bytes1(\"A\") && bytes1(c) <= bytes1(\"F\")) {\n            return 10 + c - uint8(bytes1(\"A\"));\n        }\n        revert();\n    }\n}",
  "sourcePath": "/home/pslab154/project/findid-registry-dev/contracts/DIDUtils.sol",
  "compiler": {
    "name": "solc",
    "version": "0.5.6+commit.b259423e.Emscripten.clang"
  },
  "schemaVersion": "3.4.10",
  "updatedAt": "2022-11-09T14:19:24.721Z",
  "networkType": "ethereum",
  "devdoc": {
    "methods": {}
  },
  "userdoc": {
    "methods": {}
  }
}